:020000040800F2
:1000000040080020450100088D1000088F100008EE
:1000100093100008971000089B10000800000000D3
:100020000000000000000000000000009F10000819
:10003000A110000800000000A3100008A51000088F
:100040005F0100085F0100085F0100085F01000810
:100050005F0100085F010008331100085F0100081C
:100060005F0100085F0100085F0100085F010008F0
:100070005F0100085F0100085F0100085F010008E0
:100080005F0100085F0100085F0100085F010008D0
:100090005F0100085F0100085F0100085B110008B4
:1000A0005F0100085F0100085F0100085F010008B0
:1000B0005F0100085F0100085F0100085F010008A0
:1000C0005F0100085F0100085F0100085F01000890
:1000D0005F0100085F0100085F010008AD10000823
:1000E000771100085F0100085F0100085F01000848
:1000F0005F0100085F0100085F0100085F01000860
:100100005F0100085F0100085F0100085F0100084F
:100110005F0100085F0100085F0100085F0100083F
:100120005F0100085F0100085F0100085F0100082F
:10013000DFF80CD002F0E2F8004800474910000850
:10014000400800200648804706480047FEE7FEE7D3
:10015000FEE7FEE7FEE7FEE7FEE7FEE7FEE7FEE777
:1001600047020008310100080CB500200190009002
:100170006C48006840F480306A49086000BF6948F4
:10018000006800F4003000900198401C0190009835
:1001900018B90198B0F5A06FF1D16248006800F479
:1001A000003010B10120009001E000200090009884
:1001B000012843D15C48006840F010005A490860AB
:1001C0000846006820F0030008600846006840F018
:1001D0000200086053484068524948600846406839
:1001E00048600846406840F48060486008464068BF
:1001F00020F47C1048600846406840F4E8104860ED
:100200000846006840F08070086000BF45480068FC
:1002100000F000700028F9D04248406820F0030048
:10022000404948600846406840F00200486000BF0E
:100230003C48406800F00C000828F9D10CBD10B50E
:10024000FFF792FF10BD10B53648006840F001007E
:1002500034490860084640683449084031494860DC
:1002600008460068324908402E4908600846006880
:1002700020F4802008600846406820F4FE004860B2
:100280004FF41F008860FFF7DAFF4FF00060294944
:10029000086010BD10B5002100200022214B5B68D2
:1002A00003F00C0121B1042906D0082928D107E068
:1002B000214B224C236027E01F4B204C236023E07E
:1002C000184B5B6803F47010164B5B6803F48032C4
:1002D000022303EB904022B9194B4343174C236090
:1002E0000DE0104B5B6803F4003323B1144B434320
:1002F000124C236003E0104B4343104C236003E097
:100300000D4B0E4C236000BF00BF064B5B68C3F370
:1003100003130C4CE15C094B1B68CB40074C23607A
:1003200010BD000000100240002002400000FFF855
:10033000FFFFF6FE08ED00E000127A00000000204A
:1003400000093D000400002031490143314A116099
:10035000704770B5002100230F22C47804B32D4CE0
:10036000246804F4E064C4F5E064210AC1F10403E4
:10037000CA40447804FA03F1847814402143090107
:10038000254C0678A155047804F01F050124AC40E3
:1003900005786D11AD0005F1E025C5F8004109E0D3
:1003A000047804F01F050124AC401C4D067876113A
:1003B00045F8264070BD1A4A0A400243154B1B1FE0
:1003C0001A60704739B1134A121D12680243114B6B
:1003D0001B1D1A6006E00F4A121D126882430D4B66
:1003E0001B1D1A607047042808D14FF0E0210969ED
:1003F00041F004014FF0E022116107E04FF0E021ED
:10040000096921F004014FF0E022116170470000FA
:100410000000FA050CED00E000E400E080E100E0FF
:1004200080FFFF1F002044490860091D0860091D66
:100430000860091D086041483F4914310860704751
:1004400000213D498279002A3AD00A4612680368A1
:100450009A430B461A600A1D126803689A430B1DE3
:100460001A60027911440A6803681A430A60324A22
:100470000832126803689A432F4B08331A601A1D1A
:10048000126803689A432C4B0C331A604279102A85
:100490000ED11A1F126803681A43274B08331A60DB
:1004A0001A1D126803681A43234B0C331A600DE0BF
:1004B0002149427911440A6803681A430A6005E039
:1004C000027911440A6803689A430A607047002160
:1004D000016001710C214171002181717047164941
:1004E000103109680143144A103211607047014607
:1004F0000020114A143212680A400AB1012000E0BB
:10050000002070470C4914310860704701460020F4
:100510000022094B1B6803EA0102074B14331B68D6
:100520000B4013B10AB1012000E0002070470249DE
:10053000143108607047000000040140FFFF0F0005
:1005400010B50446CC48844208D10121042000F0B3
:100550002DFB0021042000F029FB46E0C74884421F
:1005600008D10121082000F021FB0021082000F023
:100570001DFB3AE0C248844208D10121102000F05E
:1005800015FB0021102000F011FB2EE0BD48844235
:1005900008D10121202000F009FB0021202000F0DB
:1005A00005FB22E0B848844208D10121402000F038
:1005B000FDFA0021402000F0F9FA16E0B348844229
:1005C00008D10121802000F0F1FA0021802000F004
:1005D000EDFA0AE0AE48844207D10121801500F00F
:1005E000E5FA0021A01500F0E1FA10BD10B50121D7
:1005F000084600F0DBFA0021012000F0D7FA10BD18
:100600002DE9F041024600250026002000230024A9
:10061000002791F803C00CF00F0591F803C00CF00F
:10062000100CBCF1000F03D091F802C04CEA050594
:1006300091F800C0BCF1000F31D0146800202BE00D
:100640004FF0010C0CFA00F3B1F800C00CEA0306FD
:100650009E4220D183004FF00F0C0CFA03F7BC43ED
:1006600005FA03FC4CEA040491F803C0BCF1280F1E
:1006700006D14FF0010C0CFA00FCC2F814C00AE0DD
:1006800091F803C0BCF1480F05D14FF0010C0CFAF2
:1006900000FCC2F810C0401C0828D1D31460B1F887
:1006A00000C0BCF1FF0F34DD546800202EE000F1E3
:1006B000080C4FF0010808FA0CF3B1F800C00CEA7E
:1006C00003069E4221D183004FF00F0C0CFA03F772
:1006D000BC4305FA03FC4CEA040491F803C0BCF1E6
:1006E000280F05D100F1080C08FA0CF8C2F81480A4
:1006F00091F803C0BCF1480F07D100F1080C4FF08E
:10070000010808FA0CF8C2F81080401C0828CED363
:100710005460BDE8F0814FF6FF71018002218170C5
:100720000421C17070470246002093680B400BB152
:10073000012000E0002070470146886880B27047C1
:1007400002460020D3680B400BB1012000E00020DE
:1007500070470146C86880B27047016170474161C7
:1007600070470AB1016100E041617047C1607047A4
:100770004FF480320A4382618161826182698269B9
:10078000704702460020434B18684FF680731840AC
:1007900040EA021008433F4B186070473E49C86169
:1007A0007047F0B50A46002300240021002500F020
:1007B0000046B6F1004F02D1364EF16901E0354EE8
:1007C0007168C0F3034583B200F44016B6F5401FCC
:1007D00008D121F070612F4E766826F070662D4F9B
:1007E0007E6012E000F48016B6F5801F06D1032665
:1007F00006FA05F4A14341F0706106E0460D3601AA
:1008000003FA06F6B14341F0706122B1460D36019C
:1008100003FA06F6314300F00046B6F1004F02D16C
:100820001C4EF16101E01B4E7160F0BD30B500223D
:100830008B071C0F0F2303FA04F2164B08338C109E
:1008400053F824309343134C08348D1044F825306A
:1008500023468C1053F824308C07240F00FA04F43C
:1008600023430C4C08348D1044F8253030BD0A4920
:10087000DC3108607047000000080140000C0140B6
:10088000001001400014014000180140001C01400C
:10089000002001400000014000002042DF480068C5
:1008A00040F00100DD49086008464068DC49084026
:1008B000DA49486008460068DA490840D7490860C4
:1008C0000846006820F4802008600846406820F44C
:1008D000FE0048604FF41F0088607047CF490968E8
:1008E00021F48031CD4A11601146096821F480213C
:1008F0001160B0F5803F03D0B0F5802F0ED106E037
:10090000C649096841F48031C44A116007E0C3490F
:10091000096841F4A021C14A116000E000BF00BF96
:10092000704710B501460022002300204A11012A19
:1009300002D1BA4C236806E0022A02D1B74C236ADE
:1009400001E0B64C636A01F01F02012494401C4090
:100950000CB1012000E0002010BD38B5002000904F
:100960000024002500BF3120FFF7DBFF054600987B
:10097000401C00900098B0F5A06F01D0002DF2D07F
:100980003120FFF7CEFF08B1012400E0002420460B
:1009900038BD01460020A14A106820F0F80040EA66
:1009A000C10010607047A0490860704702460020EF
:1009B0009A4B586820F47C1042EA01031843974B85
:1009C0005860704798490866704701460020934A6E
:1009D000506820F003000843506070478F4840681B
:1009E00000F00C007047014600208C4A506820F04F
:1009F000F00008435060704701460020874A506865
:100A000020F4E06008435060704701460020834AAC
:100A1000506820F4605040EAC1005060704729B12E
:100A20007E4A527A02437D4B5A7204E07B4A527AE4
:100A300082437A4B5A7270477B49D83108607047BD
:100A400001460020754A506820F440400843506039
:100A500070470021714A20321170704A82F82010CC
:100A6000012802D004280AD104E001216B4A203277
:100A7000117005E00521694A2032117000E000BFC5
:100A800000BF70476949086070476449096A0143BB
:100A9000624A11627047654944390860704730B551
:100AA00000210022002400235C4D6D6805F00C013C
:100AB00021B1042905D0082923D105E05C4D05604A
:100AC00022E05B4D05601FE0544D6D6805F4701227
:100AD000524D6D6805F48034022505EB92421CB935
:100AE000544D554305600BE04C4D6D6805F40035E1
:100AF0001DB1504D5543056002E04D4D5543056015
:100B000002E04B4D056000BF00BF444D6D6805F02D
:100B1000F0010909484D6B5C0568DD4045603F4DBB
:100B20006D6805F4E061090A434D6B5C4568DD4082
:100B300085603A4D6D6805F46051C90A3E4D6B5CA5
:100B40004568DD40C560354D6D6805F44041890B51
:100B50003A4D6B5CC568B5FBF3F5056130BD29B155
:100B60002E4A526902432D4B5A6104E02B4A5269C6
:100B700082432A4B5A61704729B1284A926902433D
:100B8000264B9A6104E0254A92698243234B9A617D
:100B9000704729B1214AD2690243204BDA6104E04F
:100BA0001E4AD26982431D4BDA61704729B11B4A44
:100BB000D2680243194BDA6004E0184AD2688243D3
:100BC000164BDA60704729B1144A12690243134B7D
:100BD0001A6104E0114A12698243104B1A6170478E
:100BE00012494039086070470F49C86470470B4983
:100BF000C87170470948406A40F0807007494862F0
:100C0000704701460020054A92680A400AB1012057
:100C100000E00020704701498872704700100240D0
:100C20000000FFF8FFFFF6FE00004242800442424F
:100C300000127A0000093D0014000020240000206A
:100C400010B50446FB48844209D101218803FFF70F
:100C5000ADFF00214FF48040FFF7A8FF32E0F648D7
:100C6000844209D101214804FFF7ADFF00214FF470
:100C70000030FFF7A8FF25E0F048844209D10121A8
:100C80008804FFF7A0FF00214FF48020FFF79BFFAF
:100C900018E0EB48844209D10121C804FFF793FF13
:100CA00000214FF40020FFF78EFF0BE0E54884425F
:100CB00008D101210805FFF786FF00214FF48010BD
:100CC000FFF781FF10BD2DE9F04786B005460E46BF
:100CD0000024A24600BFA1460027B08900B100BF92
:100CE0002F462C8A4CF6FF700440F08804432C8277
:100CF000AC894EF6F3100440B088318908437189FD
:100D000008430443AC81AC8A4FF6FF400440B089ED
:100D10000443AC8201A8FFF7C2FEC648874202D155
:100D2000DDF810A001E0DDF80CA0A88900F4004077
:100D300040B10AEBCA0000EB0A1031684900B0FB71
:100D4000F1F807E00AEBCA0000EB0A1031688900ED
:100D5000B0FBF1F86420B8FBF0F004012009642135
:100D600001FB1089A88900F4004040B1322000EB5B
:100D7000C900B0FBF1F000F00700044308E03220A6
:100D800000EB09106421B0FBF1F000F00F00044308
:100D90002C8106B0BDE8F0874FF4165101600021A8
:100DA0008180C18001810C214181002181817047B6
:100DB00010B502460020108A4FF2FF0318400B883E
:100DC0004C8823438C882343CC88234318431082C8
:100DD00010BD0021018041808180C180704721B118
:100DE000828942F40052828104E082894DF6FF73C9
:100DF0001A4082817047F0B5034600240026002582
:100E0000002040F66A17B94200D100BF1846C1F36E
:100E1000421401F01F06012707FA06F5012C01D143
:100E20000C3004E0022C01D1103000E014301AB173
:100E300007682F43076002E00768AF430760F0BD13
:100E40001AB1838A0B43838202E0838A8B438382B5
:100E50007047028A4FF6F0731A400282028A0A43F0
:100E60000282704782894FF2FF731A408281828921
:100E70000A438281704721B1828942F00202828155
:100E800004E082894FF6FD731A4082817047028A1E
:100E90004FF6DF731A400282028A0A4302827047C9
:100EA00021B1028A42F48042028204E0028A4BF6B7
:100EB000FF731A4002827047C1F3080282807047B4
:100EC00001468888C0F308007047818941F001011C
:100ED00081817047028BD2B20283028B42EA0122E7
:100EE00002837047028B02F47F420283028B0A4323
:100EF0000283704721B1828A42F02002828204E09C
:100F0000828A4FF6DF731A408282704721B1828A4B
:100F100042F01002828204E0828A4FF6EF731A4098
:100F20008282704721B1828A42F00802828204E004
:100F3000828A4FF6F7731A408282704721B1828904
:100F400042F40042828103E08289C2F30E02828170
:100F5000704721B1828A42F40062828204E0828A70
:100F60004FF2FF731A4082827047828A4FF6FB73FA
:100F70001A408282828A0A438282704721B1828A21
:100F800042F00202828204E0828A4FF6FD731A4028
:100F90008282704702460020B1F5007F00D100BF79
:100FA00013880B400BB1012000E00020704701F4D2
:100FB0000072B2F5007F00D100BFCA4302807047C3
:100FC00070B50246002400230025002040F66A1672
:100FD000B14200D100BFC1F3421501F01F03012649
:100FE00006FA03F3012D02D19689334006E0022D63
:100FF00002D1168A334001E0968A33400C12012652
:1010000006FA04F41688344013B10CB1012000E054
:10101000002070BD10B50022002340F66A14A142E2
:1010200000D100BF0A1201249440A3B2DC43048023
:1010300010BD00000038014000440040004800405E
:10104000004C00400050004000F0C4F800F020F9CF
:1010500000F0F6F905A001F063F901F017F801F0CE
:101060007BF800F0A9FE00BFFEE700000D0A205744
:10107000462D455350383236362057694669C4A349
:10108000BFE9B2E2CAD4200D0A000000704700BFD9
:10109000FEE700BFFEE700BFFEE700BFFEE77047C8
:1010A0007047704710B500F03AF910BD10B540F226
:1010B00025513D48FFF784FFD8B13B48FFF700FFBB
:1010C000C4B23A48B0F80004C0F30E0040F2FF3159
:1010D00088420EDA3549B1F80014C1F30E00411C04
:1010E000324AB2F8002461F30E023049A1F800241C
:1010F0000C5440F224412C48FFF762FF012817D11D
:101100002A48B0F8000420F4004000F500402749C8
:10111000A1F800042448FFF7D3FEC4B224A1234859
:1011200001F0C4F808B1012000E000202349087054
:1011300010BD10B50120FFF7E9F968B1204800683B
:1011400080F480701E4908601E480088401C1D49BC
:1011500008800120FFF7EBF910BD10B52020FFF744
:10116000D5F938B117480088401C1649088020205E
:10117000FFF7DDF910BD10B54FF40040FFF7C6F9D9
:1011800080B10020104908701049088001201049E2
:10119000087001020A480C38FFF7DFFA4FF40040EC
:1011A000FFF7C5F910BD0000004800403C000020DA
:1011B000434C4F5345440D0A00000000300000200E
:1011C0000C080140280000203600002034000020D8
:1011D0003700002000B585B001218803FFF7CCFC63
:1011E00001210420FFF7C8FC4FF40070ADF8100097
:1011F00018208DF8130003208DF8120004A922484E
:10120000FFF7FEF94FF48060ADF8100004208DF870
:10121000130004A91C48FFF7F3F94FF4E1300090E4
:101220000020ADF80400ADF80600ADF80800ADF8F8
:101230000C000C20ADF80A0069461448FFF743FD86
:1012400001211248FFF7CBFD05B000BD70B5044683
:101250000D46E1B20D48FFF72FFE00BF80210B487D
:10126000FFF798FE0028F9D0204670BD10B504465F
:1012700000BF20210548FFF78DFE0028F9D0034864
:10128000FFF71EFE10BD00000008014000380140BD
:1012900030B527480068274AB0FBF2F1B1F1807FF2
:1012A00001D301201DE021F07F40401E4FF0E022DD
:1012B000506150170F22002807DA13071D0E1E4B2E
:1012C00000F00F04241F1D5503E013071C0E1B4BD9
:1012D0001C5400BF00204FF0E022906107201061F5
:1012E000002008B100BFFEE74FF0E020006920F0C9
:1012F00001004FF0E021086130BD01B510490098B0
:1013000008604FF0E020006940F001004FF0E0215C
:10131000086100BF0A4800680028FBD108BD0848E2
:10132000006820B106480068401E05490860704703
:101330000000002040420F0018ED00E000E400E053
:101340002C00002008B54FF4A060FEF7FDFF272019
:101350008DF8000000208DF801008DF802000120BA
:101360008DF803006846FEF7F4FF08BD00B585B0B0
:1013700001218804FFF70DFC01210820FFF7FCFB89
:101380004FF48060ADF8100018208DF81300032092
:101390008DF8120004A9F748FFF732F94FF4006006
:1013A000ADF8100004208DF8130004A9F148FFF7F0
:1013B00027F94FF4E13000900020ADF80400ADF8BB
:1013C0000600ADF80800ADF80C000C20ADF80A00DE
:1013D0006946E948FFF777FC012240F22551E648CB
:1013E000FFF709FD012240F22441E348FFF703FD26
:1013F000FFF7A8FF0121E048FFF7F1FC05B000BDB1
:1014000008B501210820FFF7B7FB4FF48070ADF855
:10141000000010208DF8030003208DF802006946BB
:10142000D448FFF7EDF801210820FFF7A5FB4FF4A2
:101430000070ADF800006946CE48FFF7E1F808BD3E
:1014400010B5FFF7DDFFFFF791FF4FF40071C948BA
:10145000FFF783F94FF48071C648FFF780F910BD9C
:1014600010B54FF40071C348FFF779F9C348FFF78F
:1014700044FF4FF40071BF48FFF76FF910BD2DE92D
:10148000F04106460C4615461F46BD48B0F800041C
:101490006FF30E00BA49A1F800043246B9A1B6486C
:1014A00000F069FB1CB915B90120BDE8F0814FF4CB
:1014B0007A7107FB01F0FFF720FF0020B049B1F877
:1014C0000014C1F30E01AE4A50541146AFA000F013
:1014D00027FFB4B1ADB12146A94800F0E7FE08B13D
:1014E000012000E0002040B92946A54800F0DEFEBA
:1014F00008B1012000E0002008B10120D5E700205C
:10150000D3E744B121469E4800F0D0FE08B1012047
:10151000CBE70020C9E72946994800F0C7FE08B18B
:101520000120C2E70020C0E710B500244FF400718D
:101530009048FFF712F99648FFF7DFFE0CE04FF4F2
:10154000FA73002293A194A0FFF799FF00B110BD98
:10155000FFF786FF601CC4B20A2CF0DB00BFF6E781
:1015600010B5044624B1012C0AD0022C18D10FE08A
:1015700040F6C41389A287A18BA0FFF780FF10BD9E
:1015800040F6C41385A283A18AA0FFF778FFF6E78F
:1015900040F6C41381A27FA189A0FFF770FFEEE798
:1015A0000020ECE730B59FB004460D462B4622469E
:1015B00086A101A800F0C4FE41F28833002275A183
:1015C00001A8FFF75CFF1FB030BD70B5A0B00446A6
:1015D0000D4616462B46224681A102A8009600F031
:1015E000AFFE4FF47A7300226AA102A8FFF747FF0B
:1015F00020B070BD10B586B004460CB1012000E0EB
:10160000002002467CA101A800F09AFE4FF4FA7374
:10161000002260A101A8FFF732FF06B010BDF0B5AF
:10162000B9B006460F4614461D46642120A800F0B6
:1016300032FE16B1012E10D107E03B4672A273A113
:1016400020A8009400F07CFE08E03B4673A26FA146
:1016500020A8009400F074FE00E000BF00BF052D3C
:1016600006DA20AB2A466EA102A800F069FE04E06B
:1016700020AA70A102A800F063FE4FF47A6371A261
:1016800044A102A8FFF7FBFE39B0F0BD70B5BCB0B5
:1016900004460D461646FCB12B4601226DA11EA83C
:1016A00000F04EFE324670A1684600F049FE4FF44D
:1016B000FA73002237A11EA8FFF7E1FE50B14FF4E4
:1016C000FA73002233A16846FFF7D9FE10B101205A
:1016D0003CB070BD0020FBE72B4600225DA11EA898
:1016E00000F02EFE4FF4FA7300222AA11EA8FFF785
:1016F000C6FEEDE710B54FF4FA73002225A15EA0F7
:10170000FFF7BDFEA0B160A11D4800F0CFFD08B1FC
:10171000022010BD5FA11A4800F0C8FD08B10320E7
:10172000F7E75FA1164800F0C1FD08B10420F0E71B
:101730000020EEE710B500244FF4FA73002215A143
:101740004DA0FFF79CFE002812D058A10C4800F0D5
:10175000ADFD10B144F0010401E024F0010457A1F3
:10176000074800F0A3FD10B144F00204B0E0ADE082
:10177000CCE00000000C01400048004020A1070020
:101780003C00002025730D0A0000000025730000B6
:1017900040420F004F4B0000415400006E6F206329
:1017A00068616E676500000041542B43574D4F44FC
:1017B000453D310041542B43574D4F44453D320088
:1017C00041542B43574D4F44453D330041542B4327
:1017D000574A41503D222573222C222573220000B6
:1017E00041542B43575341503D222573222C22252F
:1017F00073222C312C25640041542B4349504D5504
:10180000583D2564000000005443500022257322F7
:101810002C222573222C2573000000005544500013
:1018200041542B43495053544152543D25642C2577
:101830007300000041542B43495053544152543DCE
:1018400025730000414C5245415920434F4E4E45AF
:101850004354000041542B4349505345525645527E
:101860003D25642C2573000041542B4349505354AB
:101870004F3D25730000000041542B434950535401
:1018800041545553000000005354415455533A32CB
:101890000D0A00005354415455533A330D0A0000C9
:1018A0005354415455533A340D0A00002B434950C8
:1018B0005354415455533A302C0000002B434950A7
:1018C0005354415455533A312C00000024F0020483
:1018D00064A1684800F0EAFC10B144F0040401E09F
:1018E00024F0040464A1634800F0E0FC10B144F06B
:1018F000080401E024F0080463A15E4800F0D6FC6F
:1019000010B144F0100401E024F01004204610BD92
:101910002DE9F04105460F464FF4FA730022AFF26D
:101920008C115DA0FFF7ABFD5EA1524800F0BEFC3C
:1019300006460EB1B61D02E00020BDE8F08100248D
:1019400009E0305D2855285D222802D10020285565
:1019500003E0601CC4B2BC42F3DB00BF0120ECE733
:1019600010B54FF4FA730022AFF2D8114FA0FFF771
:1019700086FD08B9002010BD4FF4FA734FA2AFF2F4
:10198000EC114FA0FFF77BFDF5E710B54F48FFF7CF
:10199000B4FC4FA14F4800F0EEF84F48FFF7ADFC04
:1019A00010BD2DE9F04186B007460C4615461E468F
:1019B0004FF0000847B12246AFF23021454800F011
:1019C000DAF84FF001081CE0052E06DAAB1C3246AF
:1019D00042A101A800F0B4FC04E0AA1C44A101A8A3
:1019E00000F0AEFC4FF47A73002245A101A8FFF786
:1019F00046FD4FF47A73002242A12046FFF73FFDD7
:101A00008046404606B0BDE8F08170B5044600252A
:101A10001848B0F800046FF30E001649A1F800044E
:101A20000846B0F8000420F40040A1F8000400BF0C
:101A30001048B0F80004C00B0028F9D000200D4970
:101A4000B1F80014C1F30E010A4A50540CB1154606
:101A500005E02EA1074800F029FC00B1054D2846FD
:101A600070BD00002B4349505354415455533A32F2
:101A70002C0000003C0000202B434950535441549B
:101A800055533A332C0000002B43495053544154D2
:101A900055533A342C00000041542B4349465352CD
:101AA00000000000415049502C22000041542B43BB
:101AB00049504D4F44453D31000000003E000000BC
:101AC00041542B43495053454E44000040420F00BF
:101AD0002B2B2B000048004020A1070041542B4332
:101AE000495053454E443D25642C256400000000B8
:101AF00041542B43495053454E443D25640000005A
:101B00003E20000053454E44204F4B002B4950448B
:101B100000000000F0B503460D4616460027294692
:101B20000A2E03D0002008702846F0BD33B93020BB
:101B300001F8010B002008702846F6E7002B03DAB5
:101B40002D2001F8010B5B4242F210720DE093FB75
:101B5000F2F404B937B104F1300001F8010B04FBD1
:101B6000123301270A2092FBF0F2002AEFDC00205A
:101B700008702846D9E70FB470B586B006460CA8A1
:101B8000019073E00B9800785C281CD10B98401CE6
:101B90000B9000786E2809D072280FD10D213046A5
:101BA000FFF78AF90B98401C0B900BE00A21304696
:101BB000FFF782F90B98401C0B9003E00B98401C38
:101BC0000B9000BF4BE00B980078252840D10B9874
:101BD000401C0B900078642818D0732833D10198EA
:101BE00010C801900BE021783046FFF765F900BF7F
:101BF00080213046FFF7CEF90028F9D0641C207808
:101C00000028F0D10B98401C0B9020E0019820C8D0
:101C100001900A2202A92846FFF77CFF02AC0BE0E4
:101C200021783046FFF748F900BF80213046FFF7A2
:101C3000B1F90028F9D0641C20780028F0D10B9865
:101C4000401C0B9003E00B98401C0B9000BF06E07B
:101C50000B9810F8011B0B903046FFF72DF900BFD1
:101C600080213046FFF796F90028F9D00B980078CC
:101C7000002887D106B070BC5DF814FB10B51021A8
:101C8000CC48FEF76AFD0421CA48FEF768FD08212A
:101C9000C848FEF764FD4CF25030FFF72EFBC648F3
:101CA0000078012800D110BD0421C248FEF757FD7D
:101CB0000821C048FEF751FD4CF25030FFF71DFBE4
:101CC000BD480078012800D1EDE70421B948FEF7AE
:101CD00044FD0821B748FEF740FD4CF25030FFF7B5
:101CE0000CFBB5480078012800D1DCE70421B1489D
:101CF000FEF733FD0821AF48FEF731FD4CF25030BE
:101D0000FFF7FBFAAC480078012800D1CBE710219F
:101D1000A848FEF724FD00BFC5E710B51021A5486F
:101D2000FEF71BFD0421A348FEF717FD0821A1487B
:101D3000FEF715FD4CF25030FFF7DFFA9E480078B1
:101D4000012800D110BD04219A48FEF706FD0821A4
:101D50009848FEF702FD4CF25030FFF7CEFA964855
:101D60000078012800D1EDE704219248FEF7F7FC46
:101D700008219048FEF7F1FC4CF25030FFF7BDFA15
:101D80008D480078012800D1DCE704218948FEF75E
:101D9000E6FC08218748FEF7E2FC4CF25030FFF7E2
:101DA000ACFA85480078012800D1CBE710218148A2
:101DB000FEF7D5FC00BFC5E79AB0642101A800F08A
:101DC0006AFA10217B48FEF7CAFC7CA000F0A8FA52
:101DD0004FF480718048FEF7C0FCFFF7A5FB0020A0
:101DE000FFF7BEFB00BF7DA17FA0FFF7DBFB002854
:101DF000F9D00020FFF7FEFB00BF05237CA27EA1E7
:101E00000020FFF70CFC0028F7D000BFFFF7A8FD6B
:101E10000028FBD07CA000F083FA814981A000F06B
:101E20007FFA7F48B0F80004C0F30E017C4800F050
:101E300032FABEE07C4802887CA101A800F080FA5A
:101E40000523002201A90120FFF7ABFD7C48FFF725
:101E500054FA7348B0F80004C0F30E00401E7049F5
:101E60000D5C352D33D17048008810282FD04FF4E9
:101E700080715048FEF773FC294672A000F050FABA
:101E800000216748B0F80004C0F30E00401E644A09
:101E900011540FE0FFF7F2FE47480078012804D103
:101EA00010214448FEF75BFC08E067480078401CBE
:101EB00065490870644800781928EBDB00BF0020F2
:101EC0006149087058480088401C57490880362DE1
:101ED00032D15548008878B34FF480713548FEF709
:101EE0003EFC294657A000F01BFA00214C48B0F8F0
:101EF0000004C0F30E00401E494A11540FE0FFF7E2
:101F00000CFF2D480078012804D110212948FEF744
:101F100026FC08E04C480078401C4B4908704A48B1
:101F200000781928EBDB00BF0020474908703E48C5
:101F30000088401E3C4908803B480088102803DA8E
:101F40001D48007801280BD100203F490870364910
:101F50000880194908704FF480711648FEF7FDFBA0
:101F60003A480078002824D0FFF70FFD00BFFFF7A4
:101F7000C1FB0446002CFAD0042C15D134A000F08B
:101F8000CFF900BF15A118A0FFF70CFB0028F9D06E
:101F900000BF052316A218A10020FFF740FB002870
:101FA000F7D033A000F0BCF900BFFFF7D9FC002840
:101FB000FBD03FE700080140370000200D0AD5FDA7
:101FC000D4DAC5E4D6C32045535038323636202EF5
:101FD0002E2E2E2E2E0D0A00000C0140796E616F00
:101FE0003234363133350000796E616F0000000005
:101FF00038303830000000003139322E3136382E7A
:1020000037352E32340000000D0AC5E4D6C3204512
:1020100053503832363620CDEAB1CF0D0A000000D9
:102020003C000020257300003400002053746570CC
:10203000436F756E746572203D2025640A000000B0
:10204000A086010025630A00360000203000002031
:102050000D0AD5FDD4DAD6D8C1ACC8C8B5E3BACD1F
:10206000B7FECEF1C6F7202E2E2E2E2E2E0D0A00F4
:102070000D0AD6D8C1ACC8C8B5E3BACDB7FECEF10B
:10208000C6F7B3C9B9A60D0A0000000008B50121C2
:102090000C20FEF771FD2020ADF8000010208DF817
:1020A000030003208DF8020069462648FEF7A8FACF
:1020B0000120ADF8000069462248FEF7A1FA4FF46E
:1020C0008070ADF8000069461F48FEF799FA0420B9
:1020D000ADF8000069461C48FEF792FA0820ADF8FA
:1020E000000069461848FEF78BFA1020ADF8000092
:1020F00069461548FEF784FA2020ADF800006946CD
:102100001148FEF77DFA20210E48FEF726FB01213B
:102110000C48FEF724FB4FF480710B48FEF71DFBC3
:1021200004210948FEF719FB08210748FEF715FBB3
:1021300010210548FEF711FB20210348FEF70DFB97
:1021400008BD0000000C01400008014010B54FF42C
:10215000A060FEF7F9F810BD1FB501210520FEF7BC
:102160000BFD01214548FEF71CFBFFF7EFFF0120A7
:10217000ADF80C0048208DF80F0003A94048FEF789
:102180003FFA00210846FEF751FB01200190002094
:102190008DF808000C208DF8090001208DF80A0048
:1021A00001A8FEF74DF906208DF8000002208DF8F9
:1021B000010001208DF802008DF803006846FEF74B
:1021C000C8F801211120FEF7D7FC2020ADF80C0043
:1021D00048208DF80F0003A92A48FEF711FA0521BF
:1021E0000220FEF723FB2020019000208DF808003C
:1021F0000C208DF8090001208DF80A0001A8FEF7D7
:102200001FF917208DF8000002208DF80100012031
:102210008DF802008DF803006846FEF79AF84FF437
:102220000040ADF80C0048208DF80F0003A91448B9
:10223000FEF7E6F90F210020FEF7F8FA4FF4004010
:10224000019000208DF808000C208DF80900012075
:102250008DF80A0001A8FEF7F3F828208DF8000099
:1022600002208DF8010000208DF8020001208DF879
:1022700003006846FEF76DF81FBD00000002300045
:102280000008014000100140D2B201E000F8012B2B
:10229000491EFBD270470022F6E710B513460A46E6
:1022A00004461946FFF7F0FF204610BD30B505463D
:1022B0002A460B4612F8010B13F8014B08B1A04255
:1022C000F8D01CB1002802D06D1CF1E7284630BDC3
:1022D00030B50B46014600202022012409E021FAF6
:1022E00002F59D4205D303FA02F5491B04FA02F5F3
:1022F0002844151EA2F10102F1DC30BD064C074D49
:1023000006E0E06840F0010394E8070098471034C5
:10231000AC42F6D3FDF710FF4C2500086C250008F1
:102320000FB4054B10B503A9044A029800F02CF82D
:1023300010BC5DF814FB00004D12000838000020AE
:102340000FB4084B10B504A902AA039800F01CF8BA
:10235000044602A9002000F0F3F8204610BC5DF806
:1023600014FB00004125000802E008C8121F08C144
:10237000002AFAD170477047002001E001C1121F06
:10238000002AFBD1704700002DE9FF4F8BB09A4621
:102390000F460546002606E025280BD052460D992B
:1023A00090476D1C761C28780028F5D10FB0304678
:1023B000BDE8F08F0024A0460122604900E00443FC
:1023C00015F8013F203B02FA03F00842F7D12878C4
:1023D0002E2817D115F8010F44F004042A280ED036
:1023E0006FF02F022878A0F1300109290AD808EBF4
:1023F000880102EB410100EB01086D1CF2E757F880
:10240000048B6D1C287869283ED006DC0028CDD0CE
:1024100063280BD0642804D136E0732810D07528C7
:102420004BD052460D999047761C85E017F8040B67
:102430008DF8000000208DF80100E946012003E03E
:1024400057F8049B4FF0FF3061074FF0000401D4B0
:102450000AE0641C44450DDA8442FADB19F80410E2
:102460000029F6D106E0641C8442FCDB19F8041054
:102470000029F8D1264404E019F8010B52460D99C1
:102480009047641EF8D257E001CF4FF00A0B0028A6
:1024900002DA40422D2102E0210504D52B218DF8DE
:1024A0002410012103E0E10705D02021F7E70DF119
:1024B000200908910CE00021F9E701CF4FF00A0B49
:1024C000F9E75946FFF704FF01F1300209F8012D41
:1024D0000028F6D1ADEB090000F1200B600701D414
:1024E0004FF00108D84502DDA8EB0B0000E000200A
:1024F0008046002406E009A85246005D0D999047E9
:10250000641C761C08988442F5DB04E030205246B7
:102510000D999047761CB8F10001A8F10108F5DC8F
:1025200005E019F8010B52460D999047761CBBF156
:102530000001ABF1010BF4DC6D1C34E7092801004C
:102540000A68531C0B601070704700006C2500086F
:10255000000000203C00000068230008A8250008B7
:102560003C000020040800007823000800A24A0470
:102570000000000000000000010203040607080933
:102580000000000001020304010203040607080919
:102590000204060800000000000000000000000027
:0825A000000000000000000033
:0400000508000131BD
:00000001FF
